:02000004080AE8
:1000000000000A089C2E0A080000060006000501F0
:080010000402E50C00000000F1
:04001800EC2A0A08BC
:10001C0009480A4908B5884205D0094A824202D0EB
:10002C00121A02F0A9FC0748074A0021121A02F022
:10003C00B1FC064808BD00BF00000020042E0A08D1
:10004C0070000020700000209D0600209D060020FE
:10005C0070B502F049FB0025054E064CA41BA40804
:10006C00AC4200D170BD56F8043B98470135F7E718
:10007C00DC2D0A08FC2D0A0800F0DEB808B500F0EB
:10008C007BF9BDE8084002F0E7BA01F089BE01F047
:10009C008FBE0078B0FA80F04009704701230370DE
:1000AC0070477047704710B504461021FFF7EFFFFB
:1000BC00204610BD10B504462C21FFF7E8FF204662
:1000CC0010BD0000024B986808B101F06BBC704782
:1000DC0074000020083000F007BC07B501228DF831
:1000EC00071008300DF1070100F0FEFB03B05DF8BE
:1000FC0004FB0EB403B503AB53F8042B002101939E
:10010C0001F0E2FF02B05DF804EB03B070470000B1
:10011C0073B5044622790846A36832B1A3B90B49DA
:10012C0002B0BDE8704001F095BF094A267B094D2D
:10013C000949647B012E18BF2946CDE900140749F3
:10014C00FFF7D7FF02B070BD054AEFE7112B0A0885
:10015C00082B0A080D2B0A08092B0A08272B0A085A
:10016C00002B0A080EB403B503AB53F8042B012182
:10017C00019301F0A9FF02B05DF804EB03B07047E6
:10018C00642270B580F86024154A0023C0F87024EE
:10019C000122144EC371A0F83C3480F86A3480F804
:1001AC007424C0F87834A0F87C343178044611EA11
:1001BC000205BFF35B8F0DD13046FFF76AFF48B1E4
:1001CC002946094801F0DEFF3046FFF767FF074874
:1001DC0002F0BCFB044B2046C4F86C3470BD00BF6D
:1001EC00082C0A087000002074000020D1000A08B6
:1001FC0008B502F04BF9054901F03FFF044B012112
:10020C001888BDE8084002F0FCBA00BF442B0A086D
:10021C000000002008B502F039F9054901F02DFF66
:10022C00044B00211888BDE8084002F0EABA00BF70
:10023C00502B0A080000002008B5054B0121188836
:10024C0002F0CEFABDE80840012001F06EBF00BFFD
:10025C0000000020F0B5354B85B00093002301263B
:10026C00334C8DF80430334B04F58C6702930C221D
:10027C006B46384604F26C41ADF80C6001F076F92F
:10028C002D4D78B3276004F23C4000F0D9FA31468A
:10029C00204601F016F804F23C460146E8B1244928
:1002AC0001F23C4000F015F9E0B194F83C3413F045
:1002BC00700F17D0214B224A1E60012321492B704D
:1002CC00214840F2092300F0C2FA0446A0B902F01A
:1002DC00DDF81E4901F0D1FE0BE0204600F0F1FFE5
:1002EC000028DCD100242C7002F0D0F81849FFF75C
:1002FC0039FF204605B0F0BD02F0C8F8154901F0F1
:10030C00BCFE114800F09CFA044658B102F0BEF84D
:10031C00114901F0B2FE02F0B9F81049FFF722FFC3
:10032C002C78E6E702F0B2F80D49D3E7082C0A085E
:10033C00BC00002000093D00800000204405002086
:10034C005D2B0A08F804002098000020832B0A0873
:10035C00672B0A08A62B0A08B72B0A08C82B0A0811
:10036C00D72B0A08024620B10022FF21104601F0CB
:10037C00ECBE0146FF20FAE708B5FFF739FFFFF79F
:10038C0069FFFFF7EFFFFFF745FFBDE808404FF4AB
:10039C00FA7001F02DBD000010B5002400210120E1
:1003AC0001F072FC084B094AC3E900449A60022030
:1003BC0001F05AFC0648FFF7E3FE064B064AC3E978
:1003CC0001441A6010BD00BF840000200000FFFF34
:1003DC00BC000020900000201C2C0A0838B50D46EB
:1003EC0004462422002102F0D5FAA560EB79102BEB
:1003FC0003D0202B06D0002038BD202301202370F1
:10040C00A070F9E74023F9E710B50446243000F05A
:10041C004BFE28B104F50C70BDE8104000F044BE52
:10042C0010BD8378016943F00403837000F110025E
:10043C00806800F0EEBE00002DE9F0410178044622
:10044C0011F0200503D000263046BDE8F08142694A
:10045C00174B9A42F7D2FFF7E4FF06460028F2D07A
:10046C002169A06800F06AFE0746A068052239469B
:10047C00243000F040FE80460028E4D029464FF49A
:10048C00007202F087FA0125A3681A79AA4209D9E9
:10049C0042461868E91901F09CF90028D3D00135BF
:1004AC00EDB2F1E7636903EB42236361CCE700BF74
:1004BC0000FE1F0010B5044680680A462430A1696E
:1004CC0000F019FE20B1A38803F00F0300EB4310DA
:1004DC0010BD03780BB9FFF781BF002070472DE9E1
:1004EC00F74F0378044688461546002B5DD082787A
:1004FC00D1075AD51A072DD5C36942699B1A9D425B
:10050C0028BF1D462E464FF0000904F1100B002E9B
:10051C0000F08F80227863699706A068C3F3080AFD
:10052C004FEA53211FD5006A0144A068BAF1000FAD
:10053C0042D1B6F5007F3FD3C36A99423CD0B6F5A1
:10054C00806F52D24246006801F0BAF868B34FF49B
:10055C00007744E09B06D5D583681A894369C3EBC1
:10056C0042139BB2CBE790F8059009EA0109BAF166
:10057C00000F08D1B9F1000F05D15BB951064CBF82
:10058C00036A236A23612169A06800F0D7FD09EB97
:10059C000001CAE75A46216900F0D6FD002804DBA9
:1005AC00F1D1237813F0700F43D163784FF0FF3003
:1005BC0043F0020363703DE0CAF50077B7424FF099
:1005CC00000200F1240028BF374600F094FD0028FB
:1005DC00EBD000EB0A013A46404602F0CDF96369D4
:1005EC00B8443B446361F61B91E722784FEA562AE4
:1005FC00920606D40279A2EB0902D2B2924528BF28
:10060C00924699424FEA4A2708D2A068534642467E
:10061C00006801F09DF80028E1D1C6E753448B42F5
:10062C00F3D92430019100F03FFD01990028ECD161
:10063C00BBE7A81B03B0BDE8F08F37B54369044690
:10064C0013F4F07FC3F3431500D099B9012220466F
:10065C000DF10701FFF743FF40B2012802D0002043
:10066C0003B030BD63691F33A0686361303000EBA9
:10067C004510F5E72033F7E72DE9F0410278044601
:10068C000D46076962B14069884202D019B92161EF
:10069C006561012006E0160706D5E3698B420BD293
:1006AC0000202761BDE8F081910605D5A3681B8960
:1006BC00B5EB431FECD9F3E7D4F808C0431E9CF804
:1006CC00066006F109016E1ECB40CE40B34200D845
:1006DC0098B953064CBFDCF82030236A236104F12F
:1006EC001008002ED4D042462169A06800F02CFDE1
:1006FC00002806F1FF36F4DCD2E7F61AEFE7F8B57E
:10070C000F4604461546002124221E4602F042F9EB
:10071C00B868A580A0603B6A05F00F05E3606A012C
:10072C0000EB451595F83B301F0744D403F0170335
:10073C00237095F83B1011F0180F04BF43F0080319
:10074C0023709DF81830E37006F00303012B2CD0B6
:10075C00022B28D07BBB71052DD40123A370A1786B
:10076C008B0704D52378DF0625D4DD0723D4B311FA
:10077C0023F07F0306F008052B430B43A370C36AD9
:10078C00A3618318B3F84420B3F84A1041EA02413C
:10079C00720513D559B9A37843F00403A3707304FD
:1007AC0010D40120F8BD0323D8E70223D6E700F0CC
:1007BC006BFD0028EFD100202070F3E72162DB6C89
:1007CC00E361ECE72046E169FFF756FF0028E8D12A
:1007DC00F1E7000038B5037804460BB9012038BDA9
:1007EC0083785A0723D50121FFF764FE054628B903
:1007FC006378002043F001036370F0E70378E52B86
:10080C00F6D023781B0744BFE369C361236A438393
:10081C00638C8382094B1B682BB100F116011830D5
:10082C0098472B8B6B82A37823F00403A370A068EA
:10083C00FFF7EAFD0028DBD0D0E700BF4005002021
:10084C0010B50446FFF7C6FF0023237010BDF0B5AA
:10085C001F46002393B00993037806460C46019279
:10086C0013B1002013B0F0BD0B7813F0700FF8D05B
:10087C0013782F2B12D1019A13782F2B02D101321E
:10088C000192F8E7A1681BB93046FFF722FEE9E7B1
:10089C0009A8FFF7A3FD0028E3D009AC019801AA31
:1008AC0003A900F00BF90028DBD0019B1B789BB14E
:1008BC0000232146304603AA00F032FA0028D0D09B
:1008CC00354609AC0FCD0FC40FCD0FC42B68304685
:1008DC002360FFF7B5FFE0E73B462146304603AA0D
:1008EC0000F01EFABEE700002DE9F04703788946B8
:1008FC001907044617465BD583789A0758D51B070A
:10090C0051D46369DB43BB4252D3B84604F1100A9D
:10091C006669B8F1000F00F09180A068C6F3080575
:10092C00437913EA56260ED16DB92169002946D0B8
:10093C00524600F009FC00283ADB04D12046FFF7B0
:10094C0070FD002834D02169A06800F0F7FB311845
:10095C00A06815B9B8F5007F3FD2C5F500764645BD
:10096C0028BF4646002D36D16269E3699A4234BFEE
:10097C0001220522243000F0BEFBC8B128443246C7
:10098C004946354401F0F8FFB5F5007F04D1A06865
:10099C00243000F089FB58B16369B144334463617E
:1009AC00A8EB0608B4E7C169FFF766FE0028A8D1DA
:1009BC0063784FF0FF3043F00103637050E0236A1B
:1009CC003BB92046FFF72DFD0028F1D023692362A7
:1009DC00B9E72361B7E70122CCE7B8F5806FC26AAB
:1009EC001BD390F804C04FEA582EACEB0606F3B2BA
:1009FC00734528BF734691424FEA432607D31A44E6
:100A0C008A4282BF4FF0FF3280F82450C262A56840
:100A1C004A46286800F052FFBDE7914202BF4FF0F2
:100A2C00FF3380F82450C362A3684A46186800F06C
:100A3C00D0FE0028BCD04FF40076ADE7E269A37875
:100A4C00B24204D2E66143F00403A37003E0084A07
:100A5C001268002AF7D194F90230002B02DB3846D9
:100A6C00BDE8F0872046FFF7B5FE0028F7D19FE7D9
:100A7C0040050020042904D800EB4100B0F8010027
:100A8C0070470A299BBF01F1FF3100EB4100013196
:100A9C00C08884BF00EB410080887047411E00F184
:100AAC000A030020420842EAC01011F8012F10443A
:100ABC008B4200F0FF00F5D1704700002DE9F047A4
:100ACC00064610F8013B202BFAD00024694D8E60AD
:100ADC00335DC3B12F2B16D05C2B02D10020BDE8A7
:100AEC00F087A3F12200C0B21D2803D825FA00F02C
:100AFC00C007F3D403F0BF003C28EFD0203B5E2BA3
:100B0C00ECD80134E4E733191846074610F8015BBA
:100B1C00202DFAD02F2DF8D017604CB113F8012DE1
:100B2C002E2A01D0202A01D1013CF6E7FF2CD5DC7E
:100B3C004FF020334FF00008C1F811304C60C1F871
:100B4C000D304B6116F808302E2B01D0202B02D122
:100B5C0008F10108F6E7B8FA88F0651E40096B1C2D
:100B6C0002D0735D2E2B14D14FF0000907274A4693
:100B7C00CA464FF0080EA04568DA16F80830202B4C
:100B8C0003D02E2B07D1A84512D0002008F1010864
:100B9C00F1E7013DE3E7222B08D07C2B06D0A3F133
:100BAC002A0CBCF1050F0AD82D2B12D0A8455BD10D
:100BBC000A2F4AD00A2708224FF0100EE6E7A3F1BD
:100BCC003A0CBCF1050FF1D9A3F15B0CBCF1020F8F
:100BDC00ECD9A3F1210CBCF15D0FE7D8A845E7D007
:100BEC00BA4230D8A3F1610CBCF1190F1AD8203BD2
:100BFC004EEA0909DBB25FFA89F902F1010C5FFADE
:100C0C008CFC0A44BCF1060F537301D881F80CC05C
:100C1C006246BBE7A84518DCA8460A2708224FF015
:100C2C00100EB2E7A3F1410CBCF1190F98BF4EEABC
:100C3C000A0AE2E701200B7B087019447E234B73F0
:100C4C0031238B734BE70A2FE4D100204B7B202BF5
:100C5C003FF444AF0028EDD01AEA090F18BF4FF04B
:100C6C00020981F800903AE7BA42ECD800205F23E1
:100C7C00C3E700BF010100312DE9F84306460C46DD
:100C8C0002257E2791F80C9001F10D086168A2688D
:100C9C006B189BB21144914206D012F8010B03EB76
:100CAC00431343409BB2F6E7B9F1030F28BF4FF053
:100CBC00030909F10402D2B203F00F01A018013AA2
:100CCC000929D2B294BF30313731914541734FEA83
:100CDC001313F1D104EB0903002130465F73FFF7C6
:100CEC00CBFC01213046FFF7A8FC014628B97078EF
:100CFC00B0FA80F04009BDE8F88303786BB1C37A91
:100D0C001B07EED40B22404601F026FE0028E8D14A
:100D1C000135ADB2642DB9D1EDE70120EBE7000050
:100D2C002DE9F04F8BB005930B780D4613F0700F37
:100D3C001746069003D100200BB0BDE8F08F069B40
:100D4C001B78002BF7D153684FF0000B04931378EA
:100D5C00DA469C071BBF0D22049B01230C3318BFE2
:100D6C00B3FBF2F35C465E46D9461CBF0133DBB2E3
:100D7C00002128460293FFF77FFC07F10D03CDF805
:100D8C000CB009936B6901212846C3F34F18FFF788
:100D9C0054FC0346002872D16B78002BCBD1059BF9
:100DAC009A05C8D503F00303013B012BC3D8039B61
:100DBC00002C08BF43460393029B9C42C0F0F18079
:100DCC00B9F1000F40F00A81039B28465901FFF747
:100DDC0053FC0028AFD0029B4FF0000A03F1FF39FF
:100DEC005FFA89F94E464FF00F08002E00F00D8186
:100DFC0000212846FFF721FC044600289BD04E45D5
:100E0C0018BFB346AA6808BF46F0400B92F82430CE
:100E1C0043F0010382F8243080F800B080F80B8096
:100E2C0080F80CA007F10D00FFF738FE0D220BF037
:100E3C001F03013B53430022607384F81AA084F80B
:100E4C001BA0D7F808C00499994240F2CF801CF837
:100E5C000310042A5FFA82FE02F1010000F2CC803A
:100E6C0004EB4202A2F801100D28024603F1010323
:100E7C00E9D1013EF6B2B8E74FF0010982E70278FA
:100E8C00E52A00D082B90399002C08BF4146039192
:100E9C0002998C423CBF0134E4B2002A3FF47FAF8C
:100EAC00E52A05D100266DE702998C4238BF002453
:100EBC002E2AF7D0D97A0F2949D116BB12F0400649
:100ECC003FF460AF02F01F06B24693F80DB00D224E
:100EDC000AF1FF3802FB08F8049A4245E2D9A2EB6A
:100EEC0008020792002202EB080108911846D1B2C1
:100EFC00FFF7C0FD07998A420DD1002818BF0026C4
:100F0C0040E70AF1FF3A5FFA8AFA5245CAD15A7B96
:100F1C005A45DCD0C6E7FF28C4D8C0B2A0F14101C5
:100F2C001929DDF820C0B96898BF203011F80C10D1
:100F3C0098BFC0B2A1F1410CBCF1190F9CBF20317C
:100F4C00C9B28142AED101320D2ACCD11AE70807C1
:100F5C00A8D45EB1BAF1010F7FF4EDAE1846FFF7DD
:100F6C009DFD58457FF4E7AEB1460DE00B221846C7
:100F7C00099901F0F1FC00287FF404AF97F8009078
:100F8C0019F001097FF478AF059B19053FF5D3AE35
:100F9C0042462946059B0698CDF80090FFF7AFFB1B
:100FAC00CAE600212846FFF748FBA0B96B78002B56
:100FBC007FF4C1AE2846FFF73FFA00283FF4BBAEE2
:100FCC00AB681B79012B3FF6FBAE029B1034E4B2ED
:100FDC00A342EFD8F4E60134E4B2EDE639462846F4
:100FEC00FFF74AFE00287FF4EFAEA4E614BF4FF0E3
:100FFC00FF31002189B22CE7BEF10A0F94BF04EB3C
:10100C00420204EB400291802EE731462846D5F887
:10101C001480FFF712FB044600283FF48CAE20220C
:10102C00314601F0B7FCD7F80D302360D7F81130FA
:10103C006360B7F815302381FB7DA3723B7803F016
:10104C00180323730F4B1B689BB104F10E0104F1C1
:10105C0010009847238AC8F34F1863822383E389CF
:10106C00E382AA6892F8243043F0010382F824301A
:10107C008EE721232374282363740823A673E37358
:10108C00E8E700BF4005002070B505460C46084651
:10109C0049B101F0B5FC2B68024621462846BDE853
:1010AC007040DB68184770BD70B503780446DA07EA
:1010BC001FD5436800F10C0681683246186800F0B1
:1010CC0088FB054610B90025284670BD23789B0780
:1010DC0004D4237823F001032370F5E7D4E901301D
:1010EC00196932460144186800F073FB0028F0D1EE
:1010FC00E9E70125E8E770B5836804468B420E46A4
:10110C00154609D0FFF7D0FF08B9002070BD6B075A
:10111C000AD50023A66023702046227805F003052B
:10112C00154300F80C5BF1E763683146186804F16D
:10113C000C0200F0C5FA0028EBD1E6E783790239FE
:10114C004069994008447047012970B505460C4622
:10115C00164602D84FF0FF3070BDC3698B42F9D3ED
:10116C00C379202B16D18169022201EBD41100F531
:10117C000C70FFF7C0FF0028ECD004F07F0450F88F
:10118C00243023F07043EA699A422ABF01200020E0
:10119C003360E1E7102BDDD1C1F307238169022213
:1011AC00194400F50C70FFF7A6FF0028D2D0E4B26A
:1011BC0030F81430E7E7012938B50C46154601D84C
:1011CC00002038BDC3698B42FAD3C379202B0FD1D1
:1011DC008169032201EBD41100F50C70FFF78BFF32
:1011EC000028EDD004F07F0440F824500120E8E7FB
:1011FC00102BE5D1C1F3072381690322194400F5B3
:10120C000C70FFF778FF0028DAD0E4B220F8145005
:10121C00ECE72DE9F341C46805468C420E46904636
:10122C0001D3012701E00C460027EB690134A342EE
:10123C0002D2C7B9EC68F4E7A64214D0214628467E
:10124C0001AAFFF781FF00280DDBEED0019B002BDC
:10125C00EBD107B1EC606FF0704221462846FFF7E6
:10126C00AAFF074620B90027384602B0BDE8F08136
:10127C0016B9C8F80040F7E7224631462846FFF772
:10128C009AFF0028F5D1EEE773B505460C462146CA
:10129C00284601AAFFF758FF061E10DB0022214644
:1012AC002846FFF788FF50B1EB68A34224BF04F136
:1012BC00FF34EC60019C002EE9D102B070BD00201F
:1012CC00FBE7012370B50022C3604FF0FF330446E7
:1012DC000D46C27100F12406806280F82420C3629E
:1012EC00C0F8340280F83022C0F83832B9B1042981
:1012FC0001D9002070BD11463046FFF7FCFE0028D6
:10130C00F7D000EB051393F8AE315B06F1D105F184
:10131C001B0100EB0110D0F80650002DE9D0002283
:10132C0029463046FFF7E7FE0028E2D0B0F80B3034
:10133C00B3F5007FDDD1037C022BDAD1C389002BFE
:10134C00D7D0417B09264B1E63710023A371012367
:10135C002171994207D0013ECBD0A2795B000132BA
:10136C00DBB2A271F5E7C18A01B9416A2161C38977
:10137C002B44A361B0F8112003EB410323622281BB
:10138C00B0F81110490101F2FF1103EB5123636115
:10139C00B0F8132002B9026AE91AA3791144D940B2
:1013AC004B1CE36140F6F473994202D80C23E371B1
:1013BC009FE74FF6F473994289BFC36A10232362E7
:1013CC0020230120E37195E700F0CCBA00F0AFBA0E
:1013DC0070B50D46144600F005FB0C4E3368C01A70
:1013EC000B4B984208D900F005FB0A4B186000F033
:1013FC0067FC00F0F7FA306000F0FCFA80B2401B9A
:10140C00A042D4BF0020012070BD00BF48050020C1
:10141C00A0860100C005002038B5057A04464DB9F8
:10142C00406800F06DFA63682946187D01F0E9F90F
:10143C000123237238BD10B5037A04466BB143689F
:10144C000121187D01F0DDF9FF216068FFF7BCFF79
:10145C00606800F069FA0023237210BDF8B50446E9
:10146C000D46164600F0C6FA87B26068FFF7AEFF6D
:10147C00FF2860720ED14FF47A7239462046FFF77E
:10148C00A7FF0028F1D0552320462370FFF7D3FF88
:10149C000020F8BDFE2801D05023F5E7324629463E
:1014AC00606800F049FA607208B16023ECE760688C
:1014BC00FFF78CFF6068FFF789FF0120E9E770B543
:1014CC0004460E4600F096FA85B23246294620466E
:1014DC00FFF77EFF30B96068FFF778FFFF28F4D183
:1014EC00012070BD0020FCE7F7B5037A04460D46D9
:1014FC0001920BB9FFF790FF25B14FF4967120467E
:10150C00FFF7DDFF606845F04001FFF75DFF032644
:10151C0001AFB95D6068FFF757FF013EF9D2002DAE
:10152C000CBF952187216068FFF74EFF6068FFF7BD
:10153C004DFF0B256068FFF749FF0306607203D56A
:10154C00013D15F0FF05F5D103B0F0BD70B50446B3
:10155C000D46164637210022FFF7C6FF32462946B4
:10156C002046BDE87040FFF7BFBF00002DE9F041F9
:10157C0000254160057205708572044690461E4632
:10158C0000F038FA41460746606800F0BDF9636820
:10159C004A4A1D720125DA601D822046FFF73CFF86
:1015AC0063682946187D01F02CF90A25FF21606833
:1015BC00013DFFF709FF15F0FF05F7D163682946D8
:1015CC00187D01F01EF90A25002220461146FFF76E
:1015DC008BFF0128804618D0013D15F0FF0507D17F
:1015EC00202320462370FFF726FF0020BDE8F08162
:1015FC00FD216068FFF7E8FE4FF402786068FFF7A2
:10160C00E5FEB8F10108F9D1DEE74FF4D5720821F7
:10161C002046FFF769FF052814D1002584F80A80BD
:10162C00BFB22A4629212046FFF790FF0246D8B1C7
:10163C004FF4FA6239462046FFF7CAFE0028F0D074
:10164C004323CEE704256068FFF7C0FE013D15F08B
:10165C00FF056072F7D1AA2804D102234FF0804510
:10166C00A372DDE72523BCE7A37A022B19D13A211B
:10167C002046FFF739FF08B13723B2E76068FFF760
:10168C00A5FE00F0C000C02808BF0323606808BF97
:10169C00A372FFF79BFE6068FFF798FE6068FFF788
:1016AC0095FE2046FFF7C7FE30796368B168B289B2
:1016BC001872D96001201A8298E700BF90D00300FD
:1016CC0038B5837A1546032B18BF49020A461121F7
:1016DC000446FFF709FF30B1302323702046FFF793
:1016EC00AAFE00250BE029464FF400722046FFF7B6
:1016FC00B5FE05460028F1D02046FFF79CFE284693
:10170C0038BD10B5837A0A46032B18BF4A02122142
:10171C000446FFF7E9FE30B1312320462370FFF772
:10172C008AFE002010BD0120FCE710B500220C2120
:10173C000446FFF7D9FE30B1282320462370FFF76B
:10174C007AFE002010BD2046FFF775FE0120F9E758
:10175C00F8B5044616461F46FFF7D3FF68B10025BF
:10176C00ABB29F4206EB452109D94FF400722046DB
:10177C00FFF774FE01350028F2D10020F8BD204699
:10178C00BDE8F840FFF7D1BF38B5044615464068B0
:10179C00FFF71AFE4FF400722946606800F0E6F875
:1017AC00FF216068FFF710FEFF216068FFF70CFE59
:1017BC006068FFF70BFE607200F01F00052806D072
:1017CC00572320462370FFF736FE002038BD01203A
:1017DC00FCE770B5837A1546032B18BF49020A46FD
:1017EC0018210446FFF780FE064630B132232370E1
:1017FC002046FFF720FE00251FE02A46FE2120464A
:10180C00FFF7C2FF0028F3D04FF4FA612046FFF730
:10181C0056FE054608B95A23E9E732460D21204603
:10182C00FFF762FE08B12923E1E76068FFF7CEFD00
:10183C000028F8D12046FFF7FEFD284670BD38B5CC
:10184C000D464FF4FA610446FFF739FE30B95B23BD
:10185C0023702046FFF7EFFD002006E02A46FC210E
:10186C002046FFF791FF0028F3D038BD10B5837ADE
:10187C000A46032B18BF4A0219210446FFF734FE0F
:10188C0030B1332320462370FFF7D5FD002010BD67
:10189C000120FCE738B54FF4FA610446FFF70FFE60
:1018AC00054630B9562323702046FFF7C4FD284661
:1018BC0038BDFD216068FFF787FDF5E7F8B50446F4
:1018CC0016461F46FFF7D2FF70B10025BD422046D9
:1018DC0006EB452104D0FFF7B2FF28B10135F5E73F
:1018EC00BDE8F840FFF7D6BF2046FFF7A4FD002067
:1018FC00F8BD00000122014B1A7070474C05002006
:10190C00011D006800F076BC10B504460175006836
:10191C0000F047FC207D012100F062FF207D0121B9
:10192C00BDE8104000F06DBF006800F049BCFF211D
:10193C00006800F0CBBC000037B50D460021134603
:10194C00064A074C009200682A46217000F0C4FC3D
:10195C002378002BFCD0002003B030BD01190A08FD
:10196C004C050020006800F0B1BC000037B51346F0
:10197C000022064D064C00950068227000F0ACFC6D
:10198C002378002BFCD003B030BD00BF01190A082E
:10199C004C05002008B5024B1B685B6C019308BD1D
:1019AC00D001060808B5024B1B689B6C019308BD5F
:1019BC00D001060808B5024B1B68DB6C019308BD0F
:1019CC00D001060808B5024B1B685B6D019308BD7E
:1019DC00D001060808B5024B1B685B68019308BD73
:1019EC009C01060808B5024B1B681B69019308BDD6
:1019FC009C01060808B5024B1B685B69019308BD86
:101A0C009C01060808B5024B1B689B68019308BD36
:101A1C00B001060808B5024B1B68DB68019308BDD2
:101A2C00B001060808B5024B1B681B69019308BD81
:101A3C00B001060808B5024B1B681B6E019308BD6C
:101A4C00AC01060808B5024B1B685B6E019308BD20
:101A5C00AC01060808B5024B1B689B6E019308BDD0
:101A6C00AC01060808B5024B1B68DB6E019308BD80
:101A7C00AC01060808B5024B1B681B6F019308BD2F
:101A8C00AC01060808B5024B1B685B6F019308BDDF
:101A9C00AC01060808B5034B1B68D3F880300193E2
:101AAC0008BD0000AC01060808B5024B1B681B689A
:101ABC00019308BDB401060808B5024B1B685B69AD
:101ACC00019308BDB401060808B5024B1B68DB691D
:101ADC00019308BDB401060808B5024B1B681B6ACC
:101AEC00019308BDB401060808B5024B1B685B6A7C
:101AFC00019308BDB401060808B5024B1B689B6A2C
:101B0C00019308BDB401060808B5024B1B689B6B1A
:101B1C00019308BDB401060808B5024B1B68DB6BCA
:101B2C00019308BDB401060808B5024B1B685B6A3B
:101B3C00019308BDC401060808B5024B1B689B6ADB
:101B4C00019308BDC401060808B5024B1B68DB6A8B
:101B5C00019308BDC401060808B5024B1B681B6B3A
:101B6C00019308BDC401060808B5024B1B685B6BEA
:101B7C00019308BDC401060808B5024B1B689B6B9A
:101B8C00019308BDC401060808B5024B1B681B6C09
:101B9C00019308BDC401060808B5024B1B681B6EF7
:101BAC00019308BDC401060808B5024B1B681B68ED
:101BBC00019308BDD801060808B5024B1B681B69C8
:101BCC00019308BDD801060808B5024B1B685B6978
:101BDC00019308BDD801060808B5024B1B689B6928
:101BEC00019308BDD801060808B5024B1B68DB69D8
:101BFC00019308BDD801060808B5024B1B681B6A87
:101C0C00019308BDD801060808B5024B1B689B6CF4
:101C1C00019308BDC001060808B5024B1B685B6840
:101C2C00019308BDA801020808B5024B1B689B680C
:101C3C00019308BDA801020808B5024B1B68DB68BC
:101C4C00019308BDA801020808B5024B1B689B69EB
:101C5C00019308BDA801020808B5024B1B68DB699B
:101C6C00019308BDA801020808B5024B1B685B680C
:101C7C00019308BDA401060808B5024B1B685B69FB
:101C8C00019308BDA401060808B5024B1B68DB6A6A
:101C9C00019308BDA401060808B5034B1B68D3F8D3
:101CAC009030019308BD0000A401060808B5034B51
:101CBC001B68D3F89C30019308BD0000A4010608F2
:101CCC0008B5024B1B689B68019308BDCC01060844
:101CDC0008B5024B1B68DB6B019308BDCC010608F1
:101CEC0008B5024B1B685B68019308BDC801060868
:101CFC0008B5024B1B689B68019308BDC801060818
:101D0C0008B5024B1B68DB68019308BDC8010608C7
:101D1C0008B5024B1B681B69019308BDC801060876
:101D2C0008B5024B1B685B69019308BDC801060826
:101D3C0008B5024B1B689B69019308BDC8010608D6
:101D4C0008B5024B1B68DB69019308BDC801060886
:101D5C0008B5024B1B681B6A019308BDC801060835
:101D6C0008B5024B1B681B6B019308BDC801060824
:101D7C0008B5024B1B685B6B019308BDC8010608D4
:101D8C0008B5024B1B681B6C019308BDC801060803
:101D9C0008B5024B1B685B6C019308BDC8010608B3
:101DAC0008B5024B1B681B68019308BDA00106080F
:101DBC0008B5024B1B685B68019308BDA0010608BF
:101DCC0008B5024B1B685B6A019308BDA0010608AD
:101DDC0008B5024B1B681B6C019308BDA0010608DB
:101DEC0008B5024B1B685B6C019308BDA00106088B
:101DFC000021FFF741BF7047F8B5064615460C4663
:101E0C008F18BC4206D0336830469B6814F8011B0F
:101E1C009847F6E72846F8BD0022007CFFF70ABE7B
:101E2C000021007CFFF70EBE0021007CFFF712BEE4
:101E3C000021007CFFF716BE0021007CFFF71ABEC4
:101E4C0010B504461421FEF722F9204610BD0000FF
:101E5C0010B54FF47A73044608460021C4E9011307
:101E6C00034B114623602074FFF714FE204610BD6F
:101E7C00342C0A087047F8B50E46002400F1080708
:101E8C00051D17F8011D0A22304600F000F9AF427B
:101E9C00044401D12046F8BD002CF2D02E2130464E
:101EAC0000F0DCF80444ECE710B504461821FEF70A
:101EBC00EEF8204610BD000010B50446044B11226C
:101ECC00002140F8043B00F065FD204610BD00BF2A
:101EDC005C2C0A080346074A10B543F8042B01F1A1
:101EEC00100251F8044B914243F8044BF9D10A7893
:101EFC001A7010BD5C2C0A08024AC0E900210422A9
:101F0C00027570475C2C0A0810B59DF8084044EA2D
:101F1C000324042344EA024444EA01644460037544
:101F2C0010BD000013B5044C04609DF810400094E3
:101F3C00FFF7EAFF02B010BD5C2C0A08014B024A05
:101F4C001A60704750050020682C0A08002340686E
:101F5C001A46FFF7C5BE002202214068FFF7D0BE2B
:101F6C00002240681146FFF7C3BE002240681146AC
:101F7C00FFF7CEBE002340681A461946FFF7D0BEC5
:101F8C00002340681A461946FFF7D2BE002140686C
:101F9C00FFF7F6BE00214068FFF7FABE002240684A
:101FAC0081F00101FFF7CCBE00224068FFF7D8BEDC
:101FBC00002240681146FFF7DBBE00224068114644
:101FCC00FFF7C6BE70B515468EB0044608A8FFF7DD
:101FDC0073FF1122002103A800F0DCFC0026284628
:101FEC0000F00EFD0A4B009681B25B68284603AAEE
:101FFC00FFF70AFE30B131462046FFF77DFF204641
:10200C000EB070BD204603A9FFF764FFF7E700BFD1
:10201C00B0050020024B034A1A6000225A60704738
:10202C0054050020742C0A08F8B506460D46002409
:10203C008F18BD420CD0336830469B6815F8011BD5
:10204C009847031E01DB1C44F3E7002C08BF1C4619
:10205C002046F8BD08B5FFF717F808BD03689B6864
:10206C00184738B50D210546FFF7F8FF0A2104463D
:10207C002846FFF7F3FF204438BD38B50546FFF777
:10208C0003F804462846FFF7ECFF204438BD002334
:10209C00012A98BF0A2230B58BB00C468DF824303B
:1020AC0009A92546B4FBF2F404FB1253DBB2092B4D
:1020BC0094BF30333733DBB2AA4201F8013DF0D97B
:1020CC00FEF7E2FF0BB030BD2DE9F04186B000AF5A
:1020DC0005460E46381D142114463B60FFF770FE72
:1020EC0013280ED82846391DFEF7CEFF04461EB124
:1020FC002846FFF7B6FF044420461837BD46BDE816
:10210C00F08100F1080323F00703E846ADEB030D63
:10211C002246411C3B686846FFF752FE694628463A
:10212C00FEF7B2FF0446C546E1E710B50446FFF7DB
:10213C008BFD844208D01CB1BDE81040FFF774BD84
:10214C00BDE81040FFF778BD10BD70B505460E46D2
:10215C001446FFF779FD50B144EA062444EA0540E1
:10216C00FFF75AFDBDE87040E720FFF775BD70BD65
:10217C000022014B9A6070475C050020FFF722BCDF
:10218C00FFF718BC70B5002604460D4640F8086FE2
:10219C00FFF700FC28462570FFF796FC204666608A
:1021AC0070BD10B504468068FFF7EAFF20784FF643
:1021BC00FF71FFF779FCA068BDE81040FFF7DEBFA8
:1021CC008068FFF7DBBF000030B5002440081860C2
:1021DC001868E5B2884206D90134082C02D04008B0
:1021EC001860F5E70725024B5B5D137030BD00BF2F
:1021FC00A82C0A082DE9F04306468FB080680C46DF
:10220C00FFF7BEFF1422002109A8357800F0C2FBAD
:10221C000B230022284609A9ADF82430FFF764FCF3
:10222C009DF82D3013B19DF82C5055B10027012588
:10223C00B946B84623795DB1C3B100200FB0BDE8F3
:10224C00F083DDF830809DF834909DF83570F1E71F
:10225C00002B35D1A368434508D18DF820908DF81B
:10226C002170BDF82020A3899A42E6D00023A168F2
:10227C008DF80F300A9804AB0DF10F02FFF7A4FF95
:10228C00217985B989B9A36843450ED38DF820907F
:10229C008DF82170BDF82020A3899A4205D1049BAA
:1022AC00434502D1C9E70029F9D100230193637B8F
:1022BC009DF80F200093237B3078FFF72DFCBCE7B3
:1022CC002B462A460121CDE90055F5E708B50078E3
:1022DC00FFF7F2FBC0B208BD30B587B00A9D0446CB
:1022EC0000950078FFF708FC3DB9207802A9FFF7AC
:1022FC000BFC9DF81430DB07F7D407B030BD0000A1
:10230C0002220020044B1A60044B054AC3E900006A
:10231C009A60FFF7A9BC00BF780500206C0500206F
:10232C000000FFFF024B1A68024B1A60704700BF97
:10233C00040000207C05002070474174704708B5EC
:10234C00007CFFF721FC20EAE07008BD08B5007C9A
:10235C00FFF7F2FB20EAE07008BD08B5007CFFF740
:10236C00FBFB40EAE07008BD08B5007CFFF7ECFB16
:10237C0040EAE07008BD007CFFF7F6BB70B5467C08
:10238C0004460D462EB12946207CBDE87040FFF76F
:10239C00CBBB007CFFF7F8FB0028F4DC304670BDAB
:1023AC0010B504461421FDF772FE204610BD000046
:1023BC0010B54FF47A730446084611460022C4E95E
:1023CC000123044B2074236001236374FFF7E4FBA7
:1023DC00204610BDD42C0A084174704770477047D2
:1023EC0008B50021007CFFF7F7FB40EAE07008BD60
:1023FC0008B50121007CFFF7EFFB40EAE07008BD57
:10240C0008B5007CFFF7E0FB20EAE07008BD08B5DA
:10241C00007CFFF7D1FB20EAE07008BD38B504461C
:10242C00007C0D46FFF7D0FB002801DC607C28B156
:10243C002946207CFFF7D8FB20EAE07038BD007CF1
:10244C00FFF7DABB10B504461421FDF720FE204639
:10245C0010BD704710B54FF47A730446084600213E
:10246C00C4E90113044B20742360012311466374E7
:10247C00FFF79AFB204610BD042D0A0810B5044640
:10248C001422002100F086FA204610BD30B50E4D06
:10249C0087B001A8FFF7F2FF2978BFF35B8F11F02B
:1024AC0001040ED12846FDF7F4FD50B1214601AAD6
:1024BC000648FFF7CFFF2846FDF7F0FD044800F073
:1024CC0045FA024807B030BD800500208805002081
:1024DC00E9230A0810B504461422002100F05AFA28
:1024EC00204610BD10B50E4C86B001A8FFF7F2FFC8
:1024FC002378BFF35B8FDB070ED42046FDF7C9FDB5
:10250C0050B1012101AA0748FFF7A4FF2046FDF7AF
:10251C00C5FD054800F01AFA024806B010BD00BF10
:10252C00840500209C0500205F240A0800224068D6
:10253C001146FFF7EDBBF0B5154689B011220E46DA
:10254C000446002103A800F025FA284600F058FAAA
:10255C00002781B273682846009703AAFFF754FB43
:10256C0030B139462046FFF7C7FC204609B0F0BD14
:10257C00204603A9FFF7AEFCF7E70022406811469E
:10258C00FFF7E6BB002240681146FFF7F1BB0022C3
:10259C004068FFF7E5BB0022406881F00101FFF7BE
:1025AC00CFBB002340681A461946FFF7C1BB002376
:1025BC0040681A461946FFF7B3BB00224068114623
:1025CC00FFF796BB002202214068FFF799BB00235E
:1025DC0040681A46FFF784BB0422024B5A60024A39
:1025EC001A607047B0050020342D0A08014B1860A2
:1025FC00704700BF0800002008B5134B43B1FFF72C
:10260C0045FF03681B699847002801DDAFF3008084
:10261C000E4B43B100F074F903681B69984700280E
:10262C0001DDAFF300800A4B0BB1AFF30080094B17
:10263C0043B1FFF757FF03681B699847002801DD7A
:10264C00AFF3008008BD00BF0000000000000000D8
:10265C00000000000000000008B5FFF7CDFFFFF7F9
:10266C00C9F9014B186008BDC00500200548064A91
:10267C0008B5121A054900F07FF9054B054A1A6096
:10268C0008BD00BF0040024004400240002E0A0872
:10269C00004002401E1C279A002307B51A466FF013
:1026AC0077010093FFF702FB03B05DF804FB000019
:1026BC0007B543880A2B08D0502B0BD1094B1B684C
:1026CC004BB103B05DF804EB1847FFF7E5FF03B01F
:1026DC005DF804FB00231A466FF077010093FFF7B7
:1026EC00E5FAF4E7BC050020002110B51148FFF70E
:1026FC0077FB114B1A68114B9A420CBF0122002236
:10270C000F4B1A7001D0FFF7B1FFFFF763F90446C6
:10271C0000F048F90B4B13B12046AFF300800021B9
:10272C000848FFF7D5FABDE8104000210648FFF72E
:10273C00B3BA00BFF9250A08004002401E1C279AB4
:10274C00B805002000000000BD260A08024B98685E
:10275C0008B1FFF727B9704774000020172870B52F
:10276C00044601D9002070BDA0F10D03022B0BD93A
:10277C00012824D800F076F80021007CFFF782F9BC
:10278C0080F00100C0B2EEE7124E3178BFF35B8FE0
:10279C0011F001050DD13046FDF77BFC48B12946FF
:1027AC000D48FFF7EFFC3046FDF778FC0B4800F0C6
:1027BC00CDF8094B1878FFF78FF90028D2D1123CCD
:1027CC00012C05D800F09CF8007CFFF7D5F9D7E771
:1027DC000120C8E7700000207400002059270A0867
:1027EC00172838B504460D460AD8FF2908D0FFF73C
:1027FC00B5FF28B129462046BDE83840FFF702B99D
:10280C0038BD38B504460D46FFF704F9FF2810D043
:10281C00062804D84D2323FA00F0C30709D4204618
:10282C00FFF79CFF28B129462046BDE83840FFF74A
:10283C00F9B838BD7047000070B514232025084E38
:10284C0004460360314685600561284600F07CF83B
:10285C0031466060284600F077F8E060204670BD95
:10286C00682D0A0830B50E4D87B02978BFF35B8F01
:10287C0011F0010411D12846FDF70BFC68B101A839
:10288C00FFF7DAFF214601AA0648FFF7E1FA2846CE
:10289C00FDF704FC044800F059F8024807B030BDBD
:1028AC00C4050020C805002041280A08002307B5EC
:1028BC001A46194600930348FFF734FB03B05DF842
:1028CC0004FB00BFDC0500207047000070B5142528
:1028DC0004462A46002100F05DF825808025074E2D
:1028EC00284631462581258200F02EF8314660605D
:1028FC00284600F029F8E060204670BD682D0A08D3
:10290C0030B50E4D87B02978BFF35B8F11F0010401
:10291C0011D12846FDF7BDFB68B101A8FFF7D6FF22
:10292C00214601AA0648FFF743FD2846FDF7B6FBF2
:10293C00044800F00BF8024807B030BDF405002045
:10294C00F8050020D5280A08FDF79FBB0023014697
:10295C001A46184600F05CB810B501390244904292
:10296C0001D1002005E0037811F8014FA34201D0FA
:10297C00181B10BD0130F2E70A44914200F1FF33FD
:10298C0000D1704710B511F8014B914203F8014F7B
:10299C00F9D110BD03460244934200D1704703F8AD
:1029AC00011BF9E738B5104B04461D68AB6BB3B986
:1029BC001820FFF7F5F90246A86320B942210B4B0A
:1029CC000B48FFF705FA0B490B4BC0E900130B4BF7
:1029DC00002183600B2383810120C2E904010022C2
:1029EC00AB6B1C615A6138BD08000020692D0A08C8
:1029FC00802D0A080E33CDAB34126DE6ECDE0500EB
:102A0C00034613F8012B002AFBD1181A0138704722
:102A1C002DE9F843DFF8AC800646D8F800001F46D5
:102A2C000D46914600F058F8274B1C6834B9274CDA
:102A3C001C60274B13B11B68C4F8883063681F2BCC
:102A4C0007DDD8F8000000F049F84FF0FF30BDE882
:102A5C00F8835EB3D4F8880088B91E4B23B9D8F834
:102A6C00000000F03AF8F0E74FF48470FFF798F9A3
:102A7C000028F4D00023C0E94033C4F888000122B8
:102A8C006368022E40F8239002FA03F200EB8301F4
:102A9C00D0F8003143EA0203C0F80031C1F880706D
:102AAC0002BFD0F804311343C0F804316368D8F87E
:102ABC0000005A1C0233626044F8235000F00EF8F8
:102ACC000020C4E76C000020980600200C060020B3
:102ADC0000000000AD1D0A087047704770470000E9
:102AEC001D000A085D000A0885000A0889000A080A
:102AFC000000000064656661756C7420004D5342E3
:102B0C00004C5342003C53504953657474696E67D2
:102B1C00732064656661756C743E003C5350495378
:102B2C00657474696E677320257325752025732071
:102B3C004D4F444525753E0053442052656C6179D8
:102B4C00204F4E0053442052656C6179204F46460D
:102B5C0000636865636B2E74787400534420436182
:102B6C007264204552524F523A20426567696E207A
:102B7C004661696C6564005364204361726420454E
:102B8C0052524F523A204572726F72206F70656EBE
:102B9C006E696E672066696C65004C6F67206669AC
:102BAC006C65206F70656E656421004C6F672066E4
:102BBC00696C6520636C6F7365642E00534420430D
:102BCC00617264204973204F4B2E00536420436183
:102BDC007264204552524F523A2066696C652066E9
:102BEC0061696C656420746F20626520636C6F731F
:102BFC0065642E0000000000000000001D010A08A2
:102C0C00AF000A08B3000A08000000000000000032
:102C1C00B1000A08C1000A08E7000A08E1000A0826
:102C2C000000000000000000031E0A084D1E0A08E8
:102C3C00251E0A08051E0A082D1E0A08351E0A083C
:102C4C003D1E0A08451E0A08000000000000000096
:102C5C00831E0A08811E0A08B51E0A0861707000DE
:102C6C000000000000000000591F0A08631F0A083A
:102C7C006D1F0A08771F0A08811F0A088D1F0A0892
:102C8C00991F0A08A11F0A08A91F0A08B51F0A08DC
:102C9C00BD1F0A08C71F0A08D11F0A080008101810
:102CAC002028303825592D256D2D25645425483A7A
:102CBC00254D3A2553257A0061736374696D65005F
:102CCC00000000000000000045230A08AD230A089C
:102CDC0089230A0835200A0859230A0875230A088B
:102CEC0067230A0883230A0847230A084B230A0888
:102CFC000000000000000000EB230A0851240A0821
:102D0C0029240A0835200A081B240A08ED230A087E
:102D1C00FD230A084B240A080D240A08E5230A0897
:102D2C000000000000000000DB250A08D1250A087D
:102D3C00C7250A0839250A08BB250A08AF250A0841
:102D4C00991F0A08A11F0A08A3250A089B250A082F
:102D5C0091250A0887250A0843250A08005245458B
:102D6C004E54206D616C6C6F632073756363656585
:102D7C00646564002F746D702F6A656E6B696E7379
:102D8C002D4743432D31302D706970656C696E652C
:102D9C002D34385F32303230313132345F313630AD
:102DAC00363138303633392F7372632F6E65776C4A
:102DBC0069622F6E65776C69622F6C6962632F7321
:102DCC0074646C69622F72616E642E630000000083
:102DDC00A5030A08491F0A0821200A087D210A08B0
:102DEC000D230A0831230A08E5250A08B9280A0820
:042DFC0000000000D3
:042E000000000000CE
:102E040011000000C42C0A080C000020000000007F
:102E140000000000000000000000000000000000AE
:102E2400000000000000000000000000000000009E
:102E3400000000000000000000000000000000008E
:102E4400000000000000000000000000000000007E
:102E5400000000000000000000000000000000006E
:102E64000000000000000000000000009C0600209C
:102E7400FFFFFFFF00000102030405060708090A1B
:102E84000B0C0D0E0F101112131415161718191A16
:082E94001B1C1D1E1F2028005D
:042E9C00785634121E
:04000005080A001CC9
:00000001FF
