:02000004080AE8
:1000000000000A08981D0A08000006000600050105
:080010000402FD0800000000DD
:040018000C1B0A08AB
:10001C0009480A4908B5884205D0094A824202D0EB
:10002C00121A01F0C3FC0748074A0021121A01F00A
:10003C00CBFC064808BD00BF00000020041D0A08C8
:10004C006C0000206C000020810A0020810A002036
:10005C0070B501F0AFFB0025054E064CA41BA4089F
:10006C00A54200D170BD56F8043B98470135F7E71F
:10007C00D81C0A08F81C0A0800F0A2B808B500F051
:10008C0009F9BDE8084001F04DBB00F0C1BE00F01D
:10009C00C7BE0078B0FA80F04009704701230370A6
:1000AC007047704710B50446102101F075FC2046CE
:1000BC0010BD0000024B986808B100F0ABBC704753
:1000CC00700000200EB403B503AB53F8042B0021D1
:1000DC00019301F01FF802B05DF804EB03B0704718
:1000EC0073B5044622790846A36832B1A3B90B490B
:1000FC0002B0BDE8704000F0DDBF094A267B094D17
:10010C000949647B012E18BF2946CDE90014074923
:10011C00FFF7D8FF02B070BD054AEFE7311B0A08A4
:10012C00281B0A082D1B0A08291B0A08471B0A084A
:10013C00201B0A080EB403B503AB53F8042B0121A2
:10014C00019300F0E7FF02B05DF804EB03B07047D9
:10015C00642270B580F86024154A0023C0F870241E
:10016C000122144EC371A0F83C3480F86A3480F834
:10017C007424C0F87834A0F87C343178044611EA41
:10018C000205BFF35B8F0DD13046FFF782FF48B1FC
:10019C002946094801F01BF83046FFF77FFF074856
:1001AC0001F0FEFB044B2046C4F86C3470BD00BF5C
:1001BC008C1B0A086C00002070000020C1000A088B
:1001CC0008B50720012101F071FBBDE808400120B2
:1001DC0000F0D1BFF0B5234B85B00093002301266E
:1001EC00214C8DF80430214B04F58C6702930C22C2
:1001FC006B46384604F26C41ADF80C6000F08CFA9A
:10020C001B4D40B304F23C40276000F0D3F831465C
:10021C00204600F030F904F23C460146B0B11249D8
:10022C0001F23C4000F076F8A8B194F83C3413F09D
:10023C00700F10D00F4B1E6001232B7001F07EF954
:10024C000D49FFF777FF287805B0F0BD204600F088
:10025C0012F90028E3D100232B7001F06FF9074944
:10026C00EFE700BF8C1B0A088C00002000093D0042
:10027C007C00002014050020641B0A08731B0A086C
:10028C00024620B10022FF21104600F084BF014637
:10029C00FF20FAE708B5FFF79DFFFFF7F1FFBDE878
:1002AC0008404FF4FA7000F0D3BD000008B50021EF
:1002BC00012000F021FD0022064B02201A609A80DA
:1002CC009A71A2F580329A6000F006FD0248FFF7A1
:1002DC003FFF08BD800000208C00002010B50446B4
:1002EC00243000F07EF828B104F50C70BDE8104005
:1002FC0000F077B810BD10B5044680680A4624306B
:10030C00A16900F095F820B1A38803F00F0300EB6E
:10031C00431010BD70B5047805460E464CB9242226
:10032C00214601F051FBAE60F379102B03D0202B4A
:10033C0007D0002004E02023012420462B70AC7051
:10034C0070BD4023F8E7000038B5037804460BB9BC
:10035C00012038BD83785A0723D50121FFF7CBFF45
:10036C00054628B96378002043F001036370F0E779
:10037C000378E52BF6D023781B0744BFE369C361F0
:10038C00238C4383638C8382094B1B682BB100F154
:10039C001601183098472B8B6B82A37823F004033B
:1003AC00A370A068FFF79AFF0028DBD0D0E700BF4E
:1003BC001005002010B50446FFF7C6FF002323707C
:1003CC0010BD70B505460C46084649B101F028FB36
:1003DC002B68024621462846BDE87040DB6818476A
:1003EC0070BD70B503780446DA071FD5436800F179
:1003FC000C0681683246186800F07EFA054610B982
:10040C000025284670BD23789B0704D4237823F05D
:10041C0001032370F5E7D4E9013019693246014430
:10042C00186800F069FA0028F0D1E9E70125E8E73F
:10043C0070B5836804468B420E46154609D0FFF70B
:10044C00D0FF08B9002070BD6B070AD50023A66049
:10045C0023702046227805F00305154300F80C5B49
:10046C00F1E763683146186804F10C0200F0FEF9FC
:10047C000028EBD1E6E7012370B50022C3604FF0F2
:10048C00FF3304460D46C27100F12406806280F8E9
:10049C002420C362C0F8340280F83022C0F838320D
:1004AC00B9B1042901D9002070BD11463046FFF7BF
:1004BC00BFFF0028F7D000EB051393F8AE315B06B5
:1004CC00F1D105F11B0100EB0111D1F80650002D03
:1004DC00E9D0002229463046FFF7AAFF0028E2D0D7
:1004EC00B0F80B30B3F5007FDDD1037C022BDAD1F1
:1004FC00C389002BD7D0417B09264B1E6371002387
:10050C00A37101232171994207D0013ECBD0A2796E
:10051C005B000132DBB2A271F5E7C18A01B9416A15
:10052C002161C3892B44A361B0F8112003EB410373
:10053C0023622281B0F81110490101F2FF1103EB83
:10054C0051236361B0F8132002B9026AE91AA37946
:10055C001144D9404B1CE36140F6F473994202D824
:10056C000C23E3719FE74FF6F473994289BFC36A7A
:10057C001023236220230120E37195E770B50D460B
:10058C00144600F067FA0C4E3368C01A0B4B9842B5
:10059C0008D900F067FA0A4B186000F0C9FB00F0AC
:1005AC0059FA306000F05EFA80B2401BA042D4BF12
:1005BC000020012070BD00BF18050020A08601009E
:1005CC00B409002038B5057A04464DB9406800F0EE
:1005DC00CFF963682946187D01F079F9012323725C
:1005EC0038BD10B5037A04466BB143680121187D00
:1005FC0001F06DF9FF21606800F0ECF9606800F023
:10060C00CBF90023237210BDF8B504460D461646EF
:10061C0000F028FA87B2606800F0C1F9FF28607218
:10062C000ED14FF47A7239462046FFF7A7FF002807
:10063C00F1D0552320462370FFF7D3FF0020F8BDDF
:10064C00FE2801D05023F5E732462946606800F0B9
:10065C00ABF9607208B16023ECE7606800F09FF9B9
:10066C00606800F09CF90120E9E770B504460E467D
:10067C0000F0F8F985B2324629462046FFF77EFF96
:10068C0030B9606800F08BF9FF28F4D1012070BDFF
:10069C000020FCE7F7B5037A04460D4601920BB92E
:1006AC00FFF790FF25B14FF496712046FFF7DDFF61
:1006BC00606845F0400100F08DF9032601AFB95D8B
:1006CC00606800F087F9013EF9D2002D0CBF95212E
:1006DC008721606800F07EF9606800F060F90B25F6
:1006EC00606800F05CF90306607203D5013D15F0FB
:1006FC00FF05F5D103B0F0BD70B504460D461646A6
:10070C0037210022FFF7C6FF324629462046BDE8B6
:10071C007040FFF7BFBF00002DE9F041002541609C
:10072C00057205708572044690461E4600F09AF9D3
:10073C0041460746606800F01FF963684A4A1D721B
:10074C000125DA601D822046FFF73CFF63682946CD
:10075C00187D01F0BCF80A25FF216068013D00F00E
:10076C0039F915F0FF05F7D163682946187D01F0BA
:10077C00AEF80A25002220461146FFF78BFF012810
:10078C00804618D0013D15F0FF0507D120232046E7
:10079C002370FFF726FF0020BDE8F081FD21606883
:1007AC0000F018F94FF40278606800F0F8F8B8F12E
:1007BC000108F9D1DEE74FF4D57208212046FFF786
:1007CC0069FF052814D1002584F80A80BFB22A4697
:1007DC0029212046FFF790FF0246D8B14FF4FA6268
:1007EC0039462046FFF7CAFE0028F0D04323CEE757
:1007FC000425606800F0D3F8013D15F0FF05607228
:10080C00F7D1AA2804D102234FF08045A372DDE76B
:10081C002523BCE7A37A022B19D13A212046FFF7F6
:10082C0039FF08B13723B2E7606800F0B8F800F080
:10083C00C000C02808BF0323606808BFA37200F083
:10084C00AEF8606800F0ABF8606800F0A8F82046DD
:10085C00FFF7C7FE30796368B168B2891872D96046
:10086C0001201A8298E700BF90D0030038B5837A34
:10087C001546032B18BF49020A4611210446FFF7FF
:10088C0009FF30B1302323702046FFF7AAFE002564
:10089C000BE029464FF400722046FFF7B5FE0546E3
:1008AC000028F1D02046FFF79CFE284638BD38B50D
:1008BC0004461546406800F08DF84FF40072294646
:1008CC00606800F08BF8FF21606800F083F8FF216E
:1008DC00606800F07FF8606800F061F8607200F00A
:1008EC001F00052806D0572320462370FFF779FEFA
:1008FC00002038BD0120FCE770B5837A1546032B28
:10090C0018BF49020A4618210446FFF7C3FE0646E3
:10091C0030B1322323702046FFF763FE00251FE021
:10092C002A46FE212046FFF7C2FF0028F3D04FF4E1
:10093C00FA612046FFF799FE054608B95A23E9E704
:10094C0032460D212046FFF7A5FE08B12923E1E729
:10095C00606800F024F80028F8D12046FFF741FE2B
:10096C00284670BD0122014B1A7070471C050020EF
:10097C00011D006800F062BC10B5044601750068EA
:10098C0000F034FC207D012100F090FF207D01213E
:10099C00BDE8104000F09BBF006800F035BCFF21A3
:1009AC00006800F0B7BC000037B50D4600211346B7
:1009BC00064A074C009200682A46217000F0B0FCF1
:1009CC002378002BFCD0002003B030BD71090A083D
:1009DC001C050020006800F09DBC000037B51346D4
:1009EC000022064D064C00950068227000F098FC21
:1009FC002378002BFCD003B030BD00BF71090A086E
:100A0C001C05002008B5024B1B685B6C019308BDEC
:100A1C00D001060808B5024B1B689B6C019308BDFE
:100A2C00D001060808B5024B1B68DB6C019308BDAE
:100A3C00D001060808B5024B1B685B6D019308BD1D
:100A4C00D001060808B5024B1B685B68019308BD12
:100A5C009C01060808B5024B1B681B69019308BD75
:100A6C009C01060808B5024B1B685B69019308BD25
:100A7C009C01060808B5024B1B689B68019308BDD6
:100A8C00B001060808B5024B1B68DB68019308BD72
:100A9C00B001060808B5024B1B681B69019308BD21
:100AAC00B001060808B5024B1B681B6E019308BD0C
:100ABC00AC01060808B5024B1B685B6E019308BDC0
:100ACC00AC01060808B5024B1B689B6E019308BD70
:100ADC00AC01060808B5024B1B68DB6E019308BD20
:100AEC00AC01060808B5024B1B681B6F019308BDCF
:100AFC00AC01060808B5024B1B685B6F019308BD7F
:100B0C00AC01060808B5034B1B68D3F88030019381
:100B1C0008BD0000AC01060808B5024B1B681B6839
:100B2C00019308BDB401060808B5024B1B685B694C
:100B3C00019308BDB401060808B5024B1B68DB69BC
:100B4C00019308BDB401060808B5024B1B681B6A6B
:100B5C00019308BDB401060808B5024B1B685B6A1B
:100B6C00019308BDB401060808B5024B1B689B6ACB
:100B7C00019308BDB401060808B5024B1B689B6BBA
:100B8C00019308BDB401060808B5024B1B68DB6B6A
:100B9C00019308BDB401060808B5024B1B689B699C
:100BAC00019308BDC401060808B5024B1B685B6ABB
:100BBC00019308BDC401060808B5024B1B689B6A6B
:100BCC00019308BDC401060808B5024B1B68DB6A1B
:100BDC00019308BDC401060808B5024B1B681B6BCA
:100BEC00019308BDC401060808B5024B1B685B6B7A
:100BFC00019308BDC401060808B5024B1B689B6B2A
:100C0C00019308BDC401060808B5024B1B681B6C98
:100C1C00019308BDC401060808B5024B1B681B688C
:100C2C00019308BDD801060808B5024B1B681B6967
:100C3C00019308BDD801060808B5024B1B685B6917
:100C4C00019308BDD801060808B5024B1B689B69C7
:100C5C00019308BDD801060808B5024B1B68DB6977
:100C6C00019308BDD801060808B5024B1B681B6A26
:100C7C00019308BDD801060808B5024B1B689B6C94
:100C8C00019308BDC001060808B5024B1B685B68E0
:100C9C00019308BDA801020808B5024B1B689B68AC
:100CAC00019308BDA801020808B5024B1B68DB685C
:100CBC00019308BDA801020808B5024B1B689B698B
:100CCC00019308BDA801020808B5024B1B68DB693B
:100CDC00019308BDA801020808B5024B1B685B68AC
:100CEC00019308BDA401060808B5024B1B685B699B
:100CFC00019308BDA401060808B5024B1B68DB6A0A
:100D0C00019308BDA401060808B5034B1B68D3F872
:100D1C009030019308BD0000A401060808B5034BF0
:100D2C001B68D3F89C30019308BD0000A401060891
:100D3C0008B5024B1B689B68019308BDCC010608E3
:100D4C0008B5024B1B68DB6B019308BDCC01060890
:100D5C0008B5024B1B685B68019308BDC801060807
:100D6C0008B5024B1B689B68019308BDC8010608B7
:100D7C0008B5024B1B68DB68019308BDC801060867
:100D8C0008B5024B1B681B69019308BDC801060816
:100D9C0008B5024B1B685B69019308BDC8010608C6
:100DAC0008B5024B1B689B69019308BDC801060876
:100DBC0008B5024B1B68DB69019308BDC801060826
:100DCC0008B5024B1B681B6A019308BDC8010608D5
:100DDC0008B5024B1B681B6B019308BDC8010608C4
:100DEC0008B5024B1B685B6B019308BDC801060874
:100DFC0008B5024B1B681B6C019308BDC8010608A3
:100E0C0008B5024B1B685B6C019308BDC801060852
:100E1C0008B5024B1B681B68019308BDA0010608AE
:100E2C0008B5024B1B685B68019308BDA00106085E
:100E3C0008B5024B1B685B6A019308BDA00106084C
:100E4C0008B5024B1B685B6C019308BDA00106083A
:100E5C000021FFF749BF7047F8B5064615460C460A
:100E6C008F18BC4206D0336830469B6814F8011BBF
:100E7C009847F6E72846F8BD0022007CFFF712BE23
:100E8C000021007CFFF716BE0021007CFFF71ABE84
:100E9C000021007CFFF71EBE0021007CFFF722BE64
:100EAC0010B50446142100F077FD204610BD00005B
:100EBC0010B54FF47A73044608460021C4E90113B7
:100ECC00034B114623602074FFF71CFE204610BD17
:100EDC00A01B0A08704710B50446182100F05CFDF1
:100EEC00204610BDF8B50E46002400F10807051D7C
:100EFC0017F8011D0A22304600F0EFF8AF42044407
:100F0C0001D12046F8BD002CF2D02E21304600F045
:100F1C00D5F80444ECE7000010B50446044B11224C
:100F2C00002140F8043B00F04FFD204610BD00BFEF
:100F3C00C81B0A080346074A10B543F8042B01F1F5
:100F4C00100251F8044B914243F8044BF9D10A7842
:100F5C001A7010BDC81B0A08024AC0E900210422FD
:100F6C0002757047C81B0A0810B59DF8084044EA82
:100F7C000324042344EA024444EA016444600375F4
:100F8C0010BD000037B5044D05609DF81850009554
:100F9C00FFF7EAFF03B030BDC81B0A08014B024A39
:100FAC001A60704720050020D41B0A0800234068F3
:100FBC001A46FFF7CDBE002202214068FFF7D8BECB
:100FCC00002240681146FFF7CBBE00224068114654
:100FDC00FFF7D6BE002340681A461946FFF7D8BE65
:100FEC00002340681A461946FFF7DABE0021406814
:100FFC00FFF7FEBE00214068FFF702BF00224068E9
:10100C0081F00101FFF7D4BE00224068FFF7E0BE7B
:10101C00002240681146FFF7E3BE002240681146EB
:10102C00FFF7CEBE70B515468EB0044608A8FFF784
:10103C0073FF1122002103A800F0C6FC00262846ED
:10104C0000F0EEFC0A4B009681B25B68284603AABE
:10105C00FFF712FE30B131462046FFF77DFF2046E8
:10106C000EB070BD204603A9FFF764FFF7E700BF81
:10107C00A4090020024B034A1A6000225A607047F0
:10108C0024050020E01B0A08F8B506460D4600248E
:10109C008F18BD420CD0336830469B6815F8011B85
:1010AC009847031E01DB1C44F3E7002C08BF1C46C9
:1010BC002046F8BD08B5FFF784F908BD03689B68A6
:1010CC00184738B50D210546FFF7F8FF0A210446ED
:1010DC002846FFF7F3FF204438BD0023012A98BFB0
:1010EC000A2230B58BB00C468DF8243009A9254660
:1010FC00B4FBF2F404FB1253DBB2092B94BF303374
:10110C003733DBB2AA4201F8013DF0D9FFF759F9A8
:10111C000BB030BD2DE9F04186B000AF05460E4650
:10112C00381D142114463B60FFF782FE13280ED89D
:10113C002846391DFFF745F904461EB12846FFF72E
:10114C00C0FF044420461837BD46BDE8F08100F1CD
:10115C00080323F00703E846ADEB030D2246411CC0
:10116C003B686846FFF764FE69462846FFF729F995
:10117C000446C546E1E710B50446FFF79DFD8442E1
:10118C0008D01CB1BDE81040FFF786BDBDE810408B
:10119C00FFF78ABD10BD70B505460E461446FFF725
:1011AC008BFD50B144EA062444EA0540FFF76CFD80
:1011BC00BDE87040E720FFF787BD70BD0022014BF2
:1011CC009A6070472C0500208068FFF733BC70B51F
:1011DC00002604460D4640F8086FFFF713FC28461E
:1011EC002570FFF7A9FC2046666070BD10B504465B
:1011FC008068FFF717FC20784FF6FF71FFF78CFC27
:10120C002046FFF7E1FF10BD08B5FFF7DDFF08BD75
:10121C0030B50024400818601868E5B2884206D939
:10122C000134082C02D040081860F5E70725024B62
:10123C005B5D137030BD00BF141C0A082DE9F04330
:10124C0006468FB080680C46FFF7ECFB1422002199
:10125C0009A8357800F0B8FB0B230022284609A911
:10126C00ADF82430FFF778FC9DF82D3013B19DF8C4
:10127C002C5055B100270125B946B84623795DB1EC
:10128C00C3B100200FB0BDE8F083DDF830809DF8CD
:10129C0034909DF83570F1E7002B35D1A3684345A8
:1012AC0008D18DF820908DF82170BDF82020A389ED
:1012BC009A42E6D00023A1688DF80F300A9804AB4F
:1012CC000DF10F02FFF7A4FF217985B989B9A36845
:1012DC0043450ED38DF820908DF82170BDF8202059
:1012EC00A3899A4205D1049B434502D1C9E7002941
:1012FC00F9D100230193637B9DF80F200093237B8E
:10130C003078FFF741FCBCE72B462A460121CDE99A
:10131C000055F5E708B50078FFF706FCC0B208BD2C
:10132C0030B587B00A9D044600950078FFF71CFC89
:10133C003DB9207802A9FFF71FFC9DF81430DB079C
:10134C00F7D407B030BD000002220020044B1A6015
:10135C00044B054A1860988098719A60FFF7BCBCE2
:10136C00480500203C0500200000FFFF024B1A68D6
:10137C00024B1A60704700BF000000204C05002093
:10138C00704741747047704708B5007CFFF73CFC10
:10139C0020EAE07008BD08B5007CFFF70DFC20EAE0
:1013AC00E07008BD08B5007CFFF716FC40EAE07061
:1013BC0008BD08B5007CFFF707FC40EAE07008BDEB
:1013CC00007CFFF711BC70B5467C04460D462EB16F
:1013DC002946207CBDE87040FFF7E6BB007CFFF798
:1013EC0013FC0028F4DC304670BD10B50446142103
:1013FC0000F0D2FA204610BD4FF0000C10B5044698
:10140C00084611464FF47A72C4E901C2044A2074AA
:10141C002260012262741A46FFF7BEFB204610BD03
:10142C00401C0A0838B50C4D2978BFF35B8F11F0BE
:10143C0001040FD12846FEF72CFE58B12146074B6C
:10144C00074A0848FFF7D8FF2846FEF727FE06484C
:10145C0000F0A6FA034838BD50050020D80500203E
:10146C00540500205C06002093130A084174704751
:10147C007047704708B50021007CFFF7E5FB40EA98
:10148C00E07008BD08B50121007CFFF7DDFB40EAE8
:10149C00E07008BD08B5007CFFF7CEFB20EAE070D9
:1014AC0008BD08B5007CFFF7BFFB20EAE07008BD63
:1014BC0038B50446007C0D46FFF7BEFB002801DC66
:1014CC00607C28B12946207CFFF7C6FB20EAE0703F
:1014DC0038BD007CFFF7C8BB10B50446142100F0E2
:1014EC005BFA204610BD704710B54FF47A73044672
:1014FC0008460021C4E90113044B20742360012326
:10150C0011466374FFF788FB204610BD701C0A0857
:10151C0010B504461422002100F056FA054B204663
:10152C006360054BE36040F2011323818123238226
:10153C0010BD00BFA0060020A107002030B50E4D45
:10154C0087B001A8FFF7E4FF2978BFF35B8F11F098
:10155C0001040ED12846FEF79CFD50B1214601AA8C
:10156C000648FFF7C1FF2846FEF798FD044800F037
:10157C0017FA024807B030BD70060020780600202C
:10158C007D140A0810B504461422002100F01CFA40
:10159C00054B20466360054BE36040F20113238149
:1015AC008123238210BD00BF2208002023090020C4
:1015BC0010B50E4C86B001A8FFF7E4FF2378BFF3FB
:1015CC005B8FDB070ED42046FEF763FD50B1012183
:1015DC0001AA0748FFF788FF2046FEF75FFD054884
:1015EC0000F0DEF9024806B010BD00BF7406002002
:1015FC008C060020F3140A08002240681146FFF7FD
:10160C00BFBBF0B5154689B011220E460446002129
:10161C0003A800F0D9F9284600F002FA002781B29D
:10162C0073682846009703AAFFF726FB30B13946AA
:10163C002046FFF791FC204609B0F0BD204603A9D7
:10164C00FFF778FCF7E7002240681146FFF7B8BBBC
:10165C00002240681146FFF7C3BB00224068FFF729
:10166C00B7BB0022406881F00101FFF7A1BB00234A
:10167C0040681A461946FFF793BB002340681A4688
:10168C001946FFF785BB002240681146FFF768BB7F
:10169C00002202214068FFF76BBB002340681A460A
:1016AC00FFF756BB0422024B5A60024A1A6070477D
:1016BC00A4090020A01C0A08014B1860704700BF49
:1016CC000400002008B5134B43B1FFF737FF036844
:1016DC001B699847002801DDAFF300800E4B43B126
:1016EC00FFF7A0FE03681B699847002801DDAFF3E4
:1016FC0000800A4B0BB1AFF30080094B43B1FFF7ED
:10170C0057FF03681B699847002801DDAFF3008081
:10171C0008BD00BF00000000000000000000000039
:10172C000000000008B5FFF7CDFFFFF79BF9014B58
:10173C00186008BDB40900200548064A08B5121AFD
:10174C00054900F033F9054B054A1A6008BD00BF86
:10175C000040024004400240001D0A0800400240C4
:10176C001E1C279A002307B51A466FF077010093C9
:10177C00FFF7D4FA03B05DF804FB000007B543880B
:10178C000A2B08D0502B0BD1094B1B684BB103B063
:10179C005DF804EB1847FFF7E5FF03B05DF804FBB9
:1017AC0000231A466FF077010093FFF7B7FAF4E7BE
:1017BC00B0090020002110B51148FFF741FB114B77
:1017CC001A68114B9A420CBF012200220F4B1A705F
:1017DC0001D0FFF7B1FFFFF735F9044600F0FCF834
:1017EC000B4B13B12046AFF3008000210848FFF7E4
:1017FC00A7FABDE8104000210648FFF785BA00BFE4
:10180C00C5160A08004002401E1C279AAC0900208D
:10181C000000000089170A08024B986808B1FFF70E
:10182C00F9B8704770000020172870B5044601D92C
:10183C00002070BDA0F10D03022B0BD9012824D878
:10184C0000F078F80021007CFFF754F980F00100DB
:10185C00C0B2EEE7124E3178BFF35B8F11F0010589
:10186C000DD13046FEF715FC48B129460D48FFF75F
:10187C00AEFC3046FEF712FC0B4800F091F8094B19
:10188C001878FFF761F90028D2D1123C012C05D849
:10189C00FFF7C8FD007CFFF7AFF9D7E70120C8E7D9
:1018AC006C0000207000002025180A08172838B595
:1018BC0004460D460AD8FF2908D0FFF7B5FF28B11A
:1018CC0029462046BDE83840FFF7D4B838BD38B5B6
:1018DC0004460D46FFF7D6F8FF2810D0062804D88A
:1018EC004D2323FA00F0C30709D42046FFF79CFFD1
:1018FC0028B129462046BDE83840FFF7CBB838BDA3
:10190C0070470000002370B5202543801423084E37
:10191C0004460380314685600561284600F03EF898
:10192C0031466060284600F039F8E060204670BD12
:10193C00D41C0A0830B50E4D87B02978BFF35B8FE5
:10194C0011F0010411D12846FEF7A3FB68B101A8E0
:10195C00FFF7D8FF214601AA0648FFF7A9FA284647
:10196C00FEF79CFB044800F01BF8024807B030BDA2
:10197C00B8090020BC0900200D190A08002307B57E
:10198C001A46194600930348FFF7FCFA03B05DF8BA
:10199C0004FB00BFD0090020FEF779BBFEF775BB36
:1019AC00002301461A46184600F042B80A449142F8
:1019BC0000F1FF3300D1704710B511F8014B914283
:1019CC0003F8014FF9D110BD03460244934200D1F4
:1019DC00704703F8011BF9E738B50D4B04461D6839
:1019EC00AB6B7BB91820FFF713FA0A4A0A4BA863B2
:1019FC00C0E90023094B012283600B238381002360
:101A0C00C0E904230022AB6B1C615A6138BD00BFD6
:101A1C00040000200E33CDAB34126DE6ECDE050075
:101A2C00034613F8012B002AFBD1181A0138704712
:101A3C002DE9F843DFF8BC800646D8F800001F46B5
:101A4C000D46914600F058F8264B1C6834B9264CCC
:101A5C001C60264B13B11B68C4F8883063681F2BBD
:101A6C0007DDD8F8000000F049F84FF0FF30BDE872
:101A7C00F8835EB3D4F8880088B91D4B23B9D8F825
:101A8C00000000F03AF8F0E74FF48470FFF7C0F96B
:101A9C000028F4D00023C0E94033C4F888000122A8
:101AAC006368022E40F8239002FA03F200EB8301E4
:101ABC00D0F8003143EA0203C0F80031C1F880705D
:101ACC0002BFD0F804311A43C0F804216368D8F877
:101ADC0000005A1C0233626044F8235000F00EF8E8
:101AEC000020C4E7740A0020E80900200000000070
:101AFC001D0E0A08680000207047704770470000F0
:101B0C001D000A085D000A0885000A0889000A08F9
:101B1C000000000064656661756C7420004D5342D2
:101B2C00004C5342003C53504953657474696E67C2
:101B3C00732064656661756C743E003C5350495368
:101B4C00657474696E677320257325752025732061
:101B5C004D4F444525753E0053442043617264202B
:101B6C004973204F4B2E005344204361726420452F
:101B7C0052524F522E0000000000000000000000E6
:101B8C00ED000A08AF000A08B1000A0800000000C6
:101B9C0000000000630E0A08AD0E0A08850E0A0844
:101BAC00650E0A088D0E0A08950E0A089D0E0A0885
:101BBC00A50E0A080000000000000000F10E0A0843
:101BCC00E10E0A08E30E0A086170700000000000C4
:101BDC0000000000B90F0A08C30F0A08CD0F0A084D
:101BEC00D70F0A08E10F0A08ED0F0A08F90F0A08C7
:101BFC0001100A0809100A0815100A081D100A0815
:101C0C0027100A0831100A0800081018202830384C
:101C1C0025592D256D2D25645425483A254D3A25F9
:101C2C0053257A0061736374696D650000000000D0
:101C3C00000000008D130A08F7130A08D3130A08D2
:101C4C0095100A08A3130A08BF130A08B1130A084F
:101C5C00CD130A088F130A0895130A080000000018
:101C6C00000000007F140A08E5140A08BD140A08D5
:101C7C0095100A08AF140A0881140A0891140A086E
:101C8C00DF140A08A1140A0879140A0800000000DD
:101C9C0000000000A7160A089D160A0893160A08E9
:101CAC0005160A0887160A087B160A08F90F0A088F
:101CBC0001100A086F160A0867160A085D160A084A
:101CCC0053160A080F160A0800000000B9020A0889
:101CDC00A90F0A0881100A08C9110A0855130A0825
:101CEC0079130A08B1160A0889190A0800000000BD
:041CFC0000000000E4
:041D000000000000DF
:101D0400301C0A0808000020000000000000000049
:101D140000000000000000000000000000000000BF
:101D240000000000000000000000000000000000AF
:101D3400000000000000000000000000000000009F
:101D4400000000000000000000000000000000008F
:101D5400000000000000000000000000000000007F
:0C1D64000000000000000000790A0020D0
:101D7000FFFFFFFF00000102030405060708090A30
:101D80000B0C0D0E0F101112131415161718191A2B
:081D90001B1C1D1E1F20280072
:041D98007856341233
:04000005080A001CC9
:00000001FF
